:020000040800F2
:1000000078080020D5010008D9010008DB010008AC
:10001000DD010008DF010008E10100080000000028
:10002000000000000000000000000000E3010008E4
:10003000E501000800000000E7010008E9010008F0
:10004000EB010008EB010008EB010008EB010008E0
:10005000EB010008EB010008EB010008EB010008D0
:10006000EB010008EB010008EB010008EB010008C0
:10007000EB010008EB010008EB010008EB010008B0
:10008000EB010008EB010008EB010008EB010008A0
:10009000392C0008EB010008EB010008EB01000817
:1000A000EB010008EB010008EB010008EB01000880
:1000B000EB010008D1120008EB010008EB01000879
:1000C000EB010008EB010008EB010008EB01000860
:1000D000EB010008770B0008EB010008EB010008BA
:1000E000EB010008EB010008412C000800F002F8C9
:1000F00000F05AF80AA090E8000C82448344AAF168
:100100000107DA4501D100F04FF8AFF2090EBAE865
:100110000F0013F0010F18BFFB1A43F0010318473B
:10012000C4360000E43600000A444FF0000C10F81A
:10013000013B13F0070408BF10F8014B1D1108BF65
:1001400010F8015B641E05D010F8016B641E01F805
:10015000016BF9D113F0080F1EBF10F8014BAD1C55
:100160000C1B09D16D1E58BF01F801CBFAD505E073
:1001700014F8016B01F8016B6D1EF9D59142D6D3CD
:10018000704700000023002400250026103A28BFF5
:1001900078C1FBD8520728BF30C148BF0B607047F9
:1001A0001FB51FBD10B510BD02F0FFFF1146FFF7D0
:1001B000F7FF00F050F803F01DF803B4FFF7F2FF6B
:1001C00003BC00F0C9FC000030BF72B662B680F319
:1001D0000888704708480047FEE7FEE7FEE7FEE7AD
:1001E000FEE7FEE7FEE7FEE7FEE7FEE70348044919
:1001F000044A054B70470000ED000008780200201B
:10020000780800207804002078040020FE498969DD
:1002100041F00401FC4A916138B1FC49096889B296
:1002200021F00201F94A116014E0F849096889B225
:1002300041F00201F54A1160F549096821F47F2176
:10024000F34A11601146096841F44C3111600021F4
:10025000F04A1160704786B00025092000F023FCA9
:10026000482000F0C3FA00F039FD00F083FE41F6AB
:100270001F414FF47A7001F047F84FF4967000F088
:10028000EDFA0020FFF7C2FF4FF4967000F0E6FA97
:100290000120FFF7BBFF02F04CFC02F02FFC01F045
:1002A000FFFDA1E2002004900590022400F09DFED5
:1002B000054605F4804000287ED00020D549091D60
:1002C00008600120D449C1F8B8010F2000F046FDB4
:1002D00005F4005038B1352004A908550E2000F06F
:1002E0003DFD601CC4B205F0010038B11E2004A918
:1002F0000855012000F032FD601CC4B205F0020078
:1003000038B11F2004A90855022000F027FD601C09
:10031000C4B205F0040038B1202004A90855032018
:1003200000F01CFD601CC4B205F0080038B12120AB
:1003300004A90855042000F011FD601CC4B205F4A6
:10034000805038B1222004A908550D2000F006FD88
:10035000601CC4B205F0100038B1312004A9085562
:10036000052000F0FBFC601CC4B205F0200038B191
:10037000382004A90855062000F0F0FC601CC4B227
:1003800005F0400038B12D2004A90855072000F0E1
:10039000E5FC601CC4B205F0800038B12E2004A931
:1003A0000855082000F0DAFC601CC4B205F4807027
:1003B00048B1342004A900E0B6E00855092000F057
:1003C000CDFC601CC4B205F4007038B1332004A920
:1003D00008550A2000F0C2FC601CC4B205F480601D
:1003E00040B19DF8100040F002008DF810000B2085
:1003F00000F0B4FC05F4006038B1292004A90855C8
:100400000C2000F0ABFC601CC4B205F4004038B115
:100410002B2004A90855102000F0A0FC601CC4B2D9
:1004200005F0805020B1232004A90855601CC4B2F7
:1004300005F4002020B1242004A90855601CC4B292
:1004400005F4802020B1252004A90855601CC4B201
:1004500005F4003020B1262004A90855601CC4B260
:1004600005F4803020B1272004A90855601CC4B2CF
:1004700005F0006020B1362004A90855601CC4B204
:1004800005F4000020B1372004A90855601CC4B24F
:1004900005F4800020B1522004A90855601CC4B2A4
:1004A00005F4001020B12F2004A90855601CC4B227
:1004B00005F4801020B1302004A90855601CC4B296
:1004C00005F0806020B1502004A90855601CC4B21A
:1004D00005F0007020B1512004A90855601CC4B279
:1004E00005F0807020B14F2004A90855601CC4B2EB
:1004F00005F0005028B19DF8100040F001008DF883
:10050000100005F0004028B19DF8100040F00400F4
:100510008DF8100005F08040002804D04C2004A97C
:100520000855601CC4B248E105F480400028FAD1A7
:1005300001203849091D086000203749C1F8B80179
:1005400005F4005038B11D2004A908550E2000F014
:1005500005FC601CC4B205F0010038B1142004A9E8
:100560000855012000F0FAFB601CC4B205F002003F
:1005700038B11A2004A90855022000F0EFFB601CD6
:10058000C4B205F0040038B1082004A908550320BE
:1005900000F0E4FB601CC4B205F0080088B115202F
:1005A00004A90855042000F0D9FB1C48008840F03D
:1005B00001001A4908800120164910390860601CA2
:1005C000C4B205F4805038B1172004A908550D2095
:1005D00000F0C4FB601CC4B205F0100038B1042068
:1005E00004A90855052000F0B9FB601CC4B205F051
:1005F000200038B1162004A90855062000F0AEFBF3
:10060000601CC4B20CE0000000100240405C0040DE
:1006100004080140B00121420000214200040040D2
:1006200005F0400030B1072004A9085500F096FB02
:10063000601CC4B205F0800038B1092004A9085537
:10064000082000F08BFB601CC4B205F4807038B148
:100650001B2004A90855092000F080FB601CC4B2CF
:1006600005F4007038B1062004A908550A2000F0EE
:1006700075FB601CC4B205F4806038B1192004A970
:1006800008550B2000F06AFB601CC4B205F4006042
:1006900040B19DF8100040F001008DF810000C20D2
:1006A00000F05CFB05F4004038B12C2004A908558B
:1006B000102000F053FB601CC4B205F0805020B144
:1006C0001C2004A90855601CC4B205F4002020B108
:1006D000182004A90855601CC4B205F4802020B17C
:1006E0000C2004A90855601CC4B205F4003020B1E8
:1006F000122004A90855601CC4B205F4803020B152
:10070000132004A90855601CC4B205F0006020B194
:100710000A2004A90855601CC4B205F4000020B1E9
:100720000B2004A90855601CC4B205F4800020B158
:100730000D2004A90855601CC4B205F4001020B1B6
:100740000E2004A90855601CC4B205F4801020B125
:100750000F2004A90855601CC4B205F0806020B1C8
:10076000052004A90855601CC4B205F0007020B132
:10077000112004A90855601CC4B205F0807020B196
:10078000102004A90855601CC4B205F0005020B127
:10079000392004A90855601CC4B205F0004020B1FE
:1007A000282004A90855601CC4B205F0804020B17F
:1007B0002A2004A90855601CC4B29DF817009DF8B2
:1007C00016109DF815209DF81430CDE90032CDE9C2
:1007D00002109DF813309DF812209DF811109DF81D
:1007E000100002F0C2F900BF5CE500004FF0E0210C
:1007F000096921F004014FF0E0221161C21700EBFA
:100800005272C2F3C702234B1A701946097801EBE2
:100810004102C2EBC1114FF6FF7202EAC1011E4A4A
:100820001180704701461B4A12784A434FF0E0237B
:100830005A6100229A6101221A6100BF4FF0E02242
:10084000106900F001021AB100F48032002AF5D0DC
:1008500000224FF0E0231A619A61704701460E4A68
:1008600012884A434FF0E0235A6100229A61012224
:100870001A6100BF4FF0E022106900F001021AB1C6
:1008800000F48032002AF5D000224FF0E0231A61F4
:100890009A6170470000002002000020A34A0A402D
:1008A0000243A34B1A6070470146072323EA010263
:1008B00012029F4B1B1D18684FF6FF0318409D4BFB
:1008C000184310439A4B1B1D186070472DE9F041E7
:1008D0000746884614461D462846FFF7E5FFC5F142
:1008E000040007FA00F60F20284100EA080006433A
:1008F00006F00F06E21704EBD2625211920002F1E9
:10090000E022D2F800212146E31704EBD3635B1108
:10091000A4EB431C012303FA0CF31A432046E3170C
:1009200004EBD3635B119B0003F1E023C3F80021C8
:100930008148005D40EA06107F490855BDE8F08116
:1009400070B504460B46CE1701EB9676C6F38700CA
:10095000CE1701EB9676B610A1EB8606B606350EDD
:10096000764B9B6943F00103744EB3614FEAB63393
:1009700053F820300F26AE40B343714E46F8203076
:10098000334653F8203004FA05F61E436C4B43F807
:1009900020606C4B1B6801268E403343694E3360E8
:1009A00002F0010343B1674B0C331B6801268E40F4
:1009B0003343644E0C36336002F0020343B1614BA3
:1009C00008331E6801238B401E435E4B08331E60B4
:1009D00070BD00B5002059490861C8601420486105
:1009E00000208861C8610846006840F00100086086
:1009F0000846406854490840504948600846006825
:100A0000524908404D4908600846006820F480209B
:100A100008600846406820F4FE00486000208860B6
:100A200000214FF00060FFF739FF00BD10B54048CE
:100A30000830006840F004003D49083108603F4834
:100A4000C06940F080503D49C8614148406840F469
:100A500080703F4948600846006840F00400086024
:100A60000846006840F002000860FFF7ADFB10BDCB
:100A70003048001D2E49091D08607047014649068F
:100A80002E4A926942F001022C4B9A612C4A083A94
:100A9000526822F0E0622A4B083B5A601A465268BC
:100AA0000A435A60704730B504460025FFF791FFAE
:100AB0002248006840F480302049086000BF1F4889
:100AC0000068400C0028FAD04FF480601B49486051
:100AD000A01EC4B20846406840EA84404860084608
:100AE000406840F4803048601A48006840F03200A6
:100AF000184908601148006840F080700F4908608C
:100B000000BF0E480068400E0028FAD00B4840682D
:100B100040F002000949486005E008484068C0F319
:100B2000870505F00305022DF7D130BD80FFFF1FBB
:100B300008ED00E00000FA0500E400E000100240CB
:100B400008000140000401400000FFF8FFFFF6FE2E
:100B50000070004000200240014600BF704700BF07
:100B6000584A128802F04002002AF9D0C2B2554B0E
:100B70001B1D1A8070475349098801F0200111B3E9
:100B80005049091D0988C8B24F49098801F400413C
:100B9000C9B94D49098801F4804161B10A2803D0DF
:100BA0000021494A118020E04749098841F4004169
:100BB000454A118019E00D2806D14349098841F4BE
:100BC0008041414A118010E03F490988C1F30D017D
:100BD0003E4A50543C490988491C3B4A1180114601
:100BE0000988C72901DD0021118070472DE9F05FD8
:100BF00005460E46300102F04FFC8146344905FBA4
:100C000001F002F049FC8246494602F063FB0746C8
:100C1000384602F021FC84B2204602F03DFC8346B7
:100C2000394602F019FD82464FF0834102F048FC3C
:100C3000814602F011FC80464FF6FF7000EA041472
:100C400004EB080084B22348806940F00400214985
:100C500088610846806940F4804088611E480068C9
:100C600020F47F601C4908600846006840F40B606F
:100C700008601848C06840F480401649C8600846BB
:100C8000C06820F48040C8600E4808300480001D11
:100C9000008842F20C0108430A490C3108800846DA
:100CA000008840F4807008800846008840F02000EA
:100CB00008800223252203210846FFF707FEBDE82E
:100CC000F09F0000003801400800002030010020A3
:100CD00040420F00001002400408014010B59F4838
:100CE000806940F004009D4988610846806940F0B1
:100CF000080088610220FFF7C1FE99480068994901
:100D00000840974908600846006897490843944995
:100D1000086093480830006840F40050904908315A
:100D200008600846006840F4804008608F4800680A
:100D300000208E4908600846006840F033300860A3
:100D40008A480C30006800F47F4088490C31086004
:100D50000846006840F0FF00086010BD142818D253
:100D6000DFE800F0FA0A18263442505E6C7A889662
:100D7000A4B2C0CEDCEAF0F57C490C31096801F47C
:100D80007F417A4A0C3211601146096841F08E01A8
:100D90001160E1E075490C31096801F47F41734A43
:100DA0000C3211601146096841F08D011160D3E0E9
:100DB0006E490C31096801F47F416C4A0C321160B4
:100DC0001146096841F08B011160C5E067490C319B
:100DD000096801F47F41654A0C32116011460968C7
:100DE00041F087011160B7E060490C31096801F4F6
:100DF0007F415E4A0C3211601146096841F04E0194
:100E00001160A9E059490C31096801F47F41574A42
:100E10000C3211601146096841F04D0111609BE0F0
:100E200052490C31096801F47F41504A0C3211607B
:100E30001146096841F04B0111608DE04B490C31BE
:100E4000096801F47F41494A0C3211601146096872
:100E500041F0470111607FE044490C31096801F419
:100E60007F41424A0C3211601146096841F02E015F
:100E7000116071E03D490C31096801F47F413B4A42
:100E80000C3211601146096841F02D01116063E0D8
:100E900036490C31096801F47F41344A0C32116043
:100EA0001146096841F02B01116055E02F490C31C2
:100EB000096801F47F412D4A0C321160114609681E
:100EC00041F02701116047E028490C31096801F41D
:100ED0007F41264A0C3211601146096841F01E011B
:100EE000116039E021490C31096801F47F411F4A42
:100EF0000C3211601146096841F01D0111602BE0B0
:100F00001A490C31096801F47F41184A0C3211600A
:100F10001146096841F01B0111601DE013490C31B5
:100F2000096801F47F41114A0C32116011460968C9
:100F300041F0170111600FE000210D4A11600BE034
:100F400005E0FFE700210A4A121D116004E00121BB
:100F5000074A143A116000BF00BF704700100240FA
:100F600004080140F0FF00FF03003300000C0140C3
:100F7000B4012142D048806940F00400CE49886124
:100F80000846806940F008008861CC48006800206D
:100F9000CA49086008460068C9490843C74908604B
:100FA000C6480C30006800F47F40C4490C3108602A
:100FB0000846006840F0FF000860C2480068002052
:100FC000C049086008460068BD490843BD4908603B
:100FD000BC4808300068C0B2BA4908310860084609
:100FE000006840F47F400860704710B50024B348A3
:100FF0000C3000684FF6F0710840B0490C310860C1
:10100000084600680860AF48083000684FF2FF01EA
:101010000840AC49083108600846006808600120B3
:10102000FFF700FCA5480830006800F0F000F02849
:1010300007D1A448001D006800F47040B0F5704F5F
:101040007ED00520FFF70AFC9C480C3000684FF664
:10105000F071084099490C3108600846006840F07A
:101060000E0008609748083000684FF2FF01084002
:101070009449083108600846006840F460600860E0
:101080000120FFF7CFFB9048006808B944F0010445
:101090008D48001F006808B944F010048A480838D9
:1010A000006808B944F4807487480C38006808B9AF
:1010B00044F480548548006808B944F48034834877
:1010C000001F006808B944F480148048083800689C
:1010D00008B944F080747D480C38006808B944F0C1
:1010E000805476480C3000684FF6F0710840734920
:1010F0000C3108600846006840F00D000860714837
:10110000083000684FF2FF0108406E49083108605E
:101110000846006840F4506008600120FFF782FB39
:101120006948006808B944F002046748001F006875
:1011300008B944F0200464480838006818B900E091
:10114000B8E044F4007460480C38006808B944F40E
:1011500000545E48006808B944F400345B48001F3E
:10116000006808B944F4001458480838006808B901
:1011700044F0007455480C38006808B944F0005435
:101180004E480C3000684FF6F07108404B490C3166
:1011900008600846006840F00B00086049480830C5
:1011A00000684FF2FF0108404649083108600846D0
:1011B000006840F4306008600120FFF733FB4248CC
:1011C000006808B944F004043F48001F006808B9EB
:1011D00044F040043C480838006808B944F480648E
:1011E00039480C38006808B944F48044374800682E
:1011F00008B944F480243548001F006808B944F455
:10120000800432480838006808B944F080642F48E8
:101210000C38006808B944F0804428480C30006855
:101220004FF6F071084025490C3108600846006807
:1012300040F0070008602348083000684FF2FF01C3
:1012400008402049083108600846006840F4E06022
:1012500008600120FFF7E6FA1B48006808B944F06F
:1012600008041948001F006808B944F080041648B3
:101270000838006808B944F4006413480C38006862
:1012800008B944F400441148006808B944F4002443
:101290000E48001F006808B944F400040B480838E1
:1012A000006808B944F0006408480C38006808B9C0
:1012B00044F00044204610BD0010024000080140E8
:1012C00033338888040C01401C0121423C812142B7
:1012D0001C48008800F0010038B11B48006808B9BC
:1012E000012000E00020184908601648008820F01E
:1012F00001001449088013481038008820F00100CC
:10130000104910390880704770B505460C460F48E3
:10131000C06940F002000D49C8610A481C300580D0
:10132000001F04800748001F008840F001000549A5
:10133000091F088002231D2203210120FFF7C6FA9E
:1013400070BD000010040040A001214200100240C6
:1013500010B504462CB90120F6490968088200201E
:1013600010BDF549096808688047F24800680A30EE
:10137000F6E710B5EF480068C078F0494978884230
:1013800013DCEC480068807878B9EA480068808807
:1013900058B9E8480068C078E64909688872E649A3
:1013A000096848688047002010BD0220FCE710B59E
:1013B00004462CB90120DF4909680882002010BDCD
:1013C000DD49096888688047DA4800680C30F6E72C
:1013D00010B5D84B1B68D978D64B1B685879D84BB9
:1013E0001B689A6990470446D2480068807AE8B141
:1013F0003CB9D0480068007918B9CE4800688078B8
:1014000008B1022010BD8CB9CB490968C868804773
:10141000C84800684079C7490968C872C54800686B
:10142000C078C449096808730020EBE70220E9E7A7
:1014300010B504462CB90220BE4909680882002074
:1014400010BD0020BF490880BA480068007800F04D
:101450007F0018BBB7490968487A00F0200131B114
:10146000B849097841F00201B64A117005E0B54962
:10147000097801F0FD01B34A117000F0400131B16B
:10148000B049097841F00101AE4A117005E0AD495B
:10149000097801F0FE01AB4A11703AE0A5480068F6
:1014A000007800F07F00012801D1A648C8E7A148D4
:1014B0000068007800F07F00022828D19D4A126859
:1014C000517901F00F0001F080027AB19E4B03EBDD
:1014D0008002D2F8002C02F03002102A16D1994A6C
:1014E000127842F00102974B1A700FE0964B03EB13
:1014F0008002D2F8002C02F44052B2F5805F05D190
:10150000904A127842F001028E4B1A7001E00020DE
:1015100096E789490968086980478A4890E72DE974
:10152000F04784480068007800F07F08B8F1000FA9
:101530000AD180480068407A00F0DF007D490968E0
:1015400048720020BDE8F087B8F1020F7ED17948DB
:101550000068408818B977480068007908B102200F
:10156000F0E7DFF8D89173480068477927F08005E5
:101570002C4670480068407900F0800038B172490C
:1015800001EB8400D0F8000C00F0300606E06E4954
:1015900001EB8400D0F8000C00F4405699F80000EC
:1015A000A84204D91EB163480068807A08B90220B5
:1015B000C8E707F0800080B1634901EB8400D0F8F0
:1015C000000C00F0300010284BD1E0B201F01DF803
:1015D000E0B2302100F09FFE43E05B4901EB840064
:1015E000D0F8000C00F44050B0F5805F39D1E4B978
:1015F000564A92F82C10E0B201F091F8524A02EBF0
:101600008401D1F8001C4BF68F7201EA020080F4CD
:10161000805080F4005040F4004141F080014A4B7A
:1016200003EB8402C2F8001C1BE0E0B200F0D5FF1F
:10163000454A02EB8401D1F8001C4BF68F7201EA97
:10164000020080F4805080F4005000E00FE040F48D
:10165000004141F080013C4B03EB8402C2F8001CC6
:1016600000BF354909684869804700206AE700BF24
:10167000022067E72DE9F0412E480068467926F000
:1016800080073C462B480068407900F0800038B164
:101690002D4901EB8400D0F8000C00F0300506E085
:1016A000294901EB8400D0F8000C00F44055234890
:1016B0000078A04208D91F480068408820B91DB1B1
:1016C0001C480068807A10B90220BDE8F08106F05D
:1016D0008000A0B11C4A02EB8401D1F8001C48F63E
:1016E000BF7201EA020080F0100040F4004141F0B6
:1016F0008001154B03EB8402C2F8001C14E0124A6F
:1017000002EB8401D1F8001C4BF68F7201EA020053
:1017100080F4805040F4004141F080010A4B03EB1B
:101720008402C2F8001C00BF034909688869804729
:101730000020CAE714000020200000208C000020B8
:10174000180000200A0000200050004090000020F7
:1017500010B5F7480068407A40F02000F449096865
:101760004872F4490968C8698047002010BD10B567
:101770000246EF480068438A32B98888C01AEC4CA8
:1017800024682082002010BD08681844FBE72DE97A
:10179000F041E748006800F110042688A068C0B155
:1017A000BEB1A588B54200D93546A8B2A168884720
:1017B00007462088401B20806088284460800020E5
:1017C00000F07FFF8046AAB24146384600F03EFD59
:1017D00000BF208850B14FF44050D7490880002105
:1017E000084600F07AFF3020D44908802088A1887C
:1017F000884204DB0320CE490968087218E020887B
:10180000002804DD0520CA490968087210E0208814
:1018100070B90620C649096808720021C8480068E6
:1018200080B2801CC74A42F810103020C34908809B
:10183000BDE8F0812DE9F047BD48006800F11005D2
:101840002E88BB480068077AD6B9042F18D1BE4845
:10185000007801280FD10021B948006880B2801CAF
:10186000B84A42F810103020B449088000BF002068
:10187000B549087003E007271020B049088027E029
:10188000AC88A64201D8042000E002200746B442FA
:1018900000D93446A0B2A96888478046002000F0ED
:1018A00005FF8146A2B24946404600F0B5FCA1B210
:1018B000002000F012FF2888001B28806888204440
:1018C000688030209D49088000029B49088000BF45
:1018D000974909680F72BDE8F08770B502269448F1
:1018E0000068447892480068007800F07F00002883
:1018F00044D1092C03D1FFF73CFD06465FE0052CDF
:1019000014D18B480068C0787F280BDC88480068B9
:10191000807838B986480068808818B9844800689B
:10192000807A08B1082565E0002648E0032C0ED136
:101930007F480068C078012807D17D48006880880A
:1019400018B9FFF705FF064639E0022637E0012CFB
:1019500035D177480068C07801280DD174480068F7
:10196000808848B972480068407A00F0200018B1B9
:10197000FFF7D5FD064622E0022620E06C4800680D
:10198000007800F07F00012805D10B2C17D1FFF75C
:101990001FFD064613E066480068007800F07F00EF
:1019A00002280BD1012C03D1FFF7B9FD064606E052
:1019B000032C04D1FFF75EFE064600E002264EB17E
:1019C000E0B2624A1268516988470646032E01D187
:1019D00009250FE00EB108250CE006250021584826
:1019E000006880B2801C574A42F8101030205349DA
:1019F000088000BF4E4909680D7270BD2DE9F84F8F
:101A00004B48006845780027BA46062D1BD1484848
:101A10000068007800F07F00002813D1444909686D
:101A20008878012803D149490968CF690AE002286A
:101A300003D1464909680F6A04E0032802D14349EB
:101A400009684F6AADE0002D67D1394800684088C9
:101A5000002862D136480068C08802285DD1344829
:101A600000680079002858D131480068007800F0FB
:101A70007F0030B92E480068808810B9AFF24F67F8
:101A80008FE02B480068007800F07F00012811D11A
:101A90002749096848792D4909688A6900219047D2
:101AA00000287ED122480068807A002879D0AFF2E1
:101AB0007F6776E01E480068007800F07F0002280B
:101AC0006FD11B480068407900F00F061848006885
:101AD000407900F0700916480068407900F08000F5
:101AE00038B11B4901EB8600D0F8000C00F030083B
:101AF00006E0174901EB8600D0F8000C00F44058CE
:101B000014480078B0424CD9B9F1000F49D1B8F16E
:101B1000000F46D0AFF2E76743E0082D1CD1044820
:101B20000068007800F07F00D8BBAFF2DB7738E0C8
:101B300014000020200000202400002026000020A7
:101B4000505C0040006000400C00002018000020A5
:101B5000005000408C0000200A2D22D1C5480068AA
:101B6000007800F07F0001281BD1C2480068807A0D
:101B7000B8B1C0480068408898B9BE48006800798C
:101B800078B9BC480068C08801280AD1B9490968F9
:101B90004879B94909688A690021904708B9AFF2C4
:101BA000F17757B1B3480068A0F812A0B1480068B7
:101BB00087610020B84700240FE0AE4A12685078D1
:101BC000AD4A1268116988470446032C05D10920E3
:101BD000A84909680872BDE8F88FA6480068008A1D
:101BE0004FF6FF71884204D10920A24909680872A2
:101BF000F1E7022C03D09F480068008A20B9082032
:101C00009C4909680872E6E79A480068007800F085
:101C10008000E0B397480068C0880090954800684D
:101C2000008A0099884204D992490098096808827C
:101C300023E090480068008A8E490968C988884274
:101C40001BDA8C480068008A8B49096891F82C10CF
:101C5000884203DA0020894908700EE08548006850
:101C6000008A8549096891F82C1090FBF1F201FB7C
:101C7000120010B90120814908707F48006890F86F
:101C80002C107C4800688182FFF7D4FD07E0FFE755
:101C9000032078490968087200037949088000BF69
:101CA00099E710B5774890F82C10002000F037FD28
:101CB00070480068007A082805D140027049088001
:101CC0001020714908806B480068007A092801D10A
:101CD000012010BD0020FCE738B501246B480068E6
:101CE00080B2001D6A4931F8100080B201EB40005B
:101CF000009060480068007A092832D00098007887
:101D00005C49096808700098401C009000980078B1
:101D10005849096848700098401C0090009800EBF2
:101D200044000090009931F8020B009100F0A0FEF1
:101D3000504909684880009800EB440000900099E1
:101D400031F8020B009100F093FE4A49096888803F
:101D5000009800EB4400009000980088454909680D
:101D6000C880012043490968087242480068C08859
:101D700010B9FFF7B2FD01E0FFF740FEFFF791FF5A
:101D800038BD30B50146434B1A78002014E00306F5
:101D9000414C04EB9353D3F8003C48F68F74234036
:101DA00048F280042343C4B2234304063A4D05EBB2
:101DB0009454C4F8003C401C9042E8D341F08003A6
:101DC000324C241F236030BD10B52A480068047AC5
:101DD000022C01D0042C05D1FFF72CFD254800680A
:101DE000047A1CE0062C19D12248006840780528A6
:101DF0000ED120480068007800F07F0040B91D49EE
:101E00000968C878FFF7BDFF24490968086A804758
:101E10001949096888688047082400E008241549A2
:101E200009680C72FFF73DFF10BD10B5114800683E
:101E3000047A022C01D0042C01D1082412E0032CD6
:101E400001D0052C05D1FFF7A2FC0A480068047AEE
:101E500008E0072C05D108490968C86880470824AC
:101E600000E00824034909680C72FFF71AFF10BD4F
:101E70007047000014000020180000200C00002013
:101E8000240000209000002026000020505C00402C
:101E9000006000408C000020005000402000002026
:101EA00010B5084808490860022009680872074808
:101EB0000749086007480849086005490968086833
:101EC000804710BDF8010020140000209000002081
:101ED00018000020C00000202000002008B50020CD
:101EE000009022E1C448008800F00F00C349087048
:101EF0000846007800287CD1C1480068C1490880A4
:101F00000846008800F03000BF490880BD480088BE
:101F100000F44050BB490880B94909684BF6BF72CC
:101F200001EA020080F4005080F0200040F40041FB
:101F300041F08001B24A1160AF48008800F0100003
:101F400090BB1046006848F60F71084011460860C3
:101F5000FFF73AFFAA4909684BF6BF7201EA02008F
:101F6000A849098801F4805109B180F48050A5493D
:101F7000098801F4005109B180F40050A249098890
:101F800001F0100109B180F010009F49098801F0AB
:101F9000200109B180F0200081B241F4004141F0FC
:101FA0008001974A116008BDFFE79548006880B23C
:101FB0000090BDF8000000F40060B0B390480068E5
:101FC000C0F30E0048F68F7108408D490860FFF796
:101FD00083FE8B4909684BF6BF7201EA020089490A
:101FE000098801F4805109B180F48050854909883D
:101FF00000E056E001F4005109B180F4005082493C
:10200000098801F0100109B180F010007E490988AB
:1020100001F0200109B180F0200081B241F40041BB
:1020200041F08001764A1160BDE7FFE7BDF800008E
:1020300000F40040002878D071480068C0F30E001A
:1020400048F68F7108406E490860FFF7EEFE6C4954
:1020500009684BF6BF7201EA02006A49098801F477
:10206000805109B180F480506649098801F400511B
:1020700009B180F400506449098801F0100109B1E8
:1020800080F010006049098801F0200109B180F05A
:10209000200081B241F4004141F08001584A1160B2
:1020A00081E756480078594901EB8000D0F8000CD0
:1020B00080B20090BDF8000000F40040C0B14F486D
:1020C000007801EB8000D0F8000CC0F30E0048F659
:1020D0008F710840494909784C4A02EB8101C1F8E7
:1020E000000C46490978491E494A52F821008047A8
:1020F000BDF8000000F08000B8B1404800784349C6
:1021000001EB8000D0F8000C48F60F7108403B4905
:1021100009783E4A02EB8101C1F8000C3749097881
:10212000491E3C4A52F82100804735484430006837
:1021300080B23149088000F4004000287FF4D2AE1C
:1021400000BF30E710B500244AE047F6FF702C4985
:10215000443108602848008800F00F0027490870C3
:1021600008460078294901EB8000D0F8000C84B2C1
:1021700004F40040C8B12148007801EB8000D0F899
:10218000000CC0F30E0048F68F7108401B49097817
:102190001E4A02EB8101C1F8000C18490978491E5A
:1021A0001B4A52F8210080471AE004F08000B8B1C1
:1021B00012480078154901EB8000D0F8000C48F671
:1021C0000F7108400D490978104A02EB8101C1F8EE
:1021D000000C0A490978491E0E4A52F8210080472E
:1021E00007484430006880B20349088000F400408A
:1021F0000028AAD110BD00004400002010000020DB
:10220000005C004024000020260000200050004018
:102210006C00002050000020F0B5144604F1010CC1
:102220004FEA6C07DFF848C00CEB41033D460AE07B
:102230000678401C90F800C046EA0C2223F8022BD6
:102240009B1C401C6D1E002DF2D1F0BDF0B5561C3C
:102250007510074E06EB41042B4605E034F8047B6D
:1022600020F8017B401C5B1E002BF7D1F0BD000065
:1022700000600040FA4908607047F948006880B281
:102280007047F749091D08607047F548001D006850
:1022900080B27047F2480830006880B27047F04959
:1022A0000C3108607047EE480C30006880B270470F
:1022B0004FF6F8710140EA4A103211607047E84861
:1022C0001030006880B27047E64B03EB8002C2F822
:1022D000001C70470146E34A02EB8100D0F8000C75
:1022E00080B2704710B5DF4B03EB8002D2F8002CB0
:1022F00048F68F131A400A43DA4C04EB8003C3F804
:10230000002C10BD0146D74A02EB8100D0F8000C2A
:1023100000F4C060704730B5D24C04EB8003D3F8B2
:10232000003C48F6BF7403EA040201F010030BB14D
:1023300082F0100201F020030BB182F0200242F47F
:10234000004343F08003C74D05EB8004C4F8003C14
:1023500030BD30B5C34C04EB8003D3F8003C4BF6E2
:102360008F7403EA040201F480530BB182F48052AB
:1023700001F400530BB182F4005242F4004343F0E5
:102380008003B84D05EB8004C4F8003C30BD30B587
:1023900003460C461846FFF79DFF0546012C07D162
:1023A00025F48050AF4A02EB8301C1F8000C08E02D
:1023B000022C06D125F01000AA4A02EB8301C1F8D5
:1023C000000C30BD0146A74A02EB8100D0F8000C9A
:1023D00000F0300070470146A24A02EB8100D0F8BD
:1023E000000C00F44050704710B59E4B03EB800288
:1023F000D2F8002C48F6BF7302EA030181F0100105
:1024000081F0200141F4004242F08002954C04EB3F
:102410008003C3F8002C10BD10B5924B03EB800273
:10242000D2F8002C4BF68F7302EA030181F480513D
:1024300081F4005141F4004242F08002894C04EBE7
:102440008003C3F8002C10BD864A02EB8001D1F84E
:10245000001C41F4807148F68F72114048F28002EE
:102460001143804B03EB8002C2F8001C70477D4A89
:1024700002EB8001D1F8001C48F68F62114048F24F
:1024800080021143774B03EB8002C2F8001C7047B7
:10249000744A02EB8001D1F8001C48F68F621140AB
:1024A00048F2800211436F4B03EB8002C2F8001C1C
:1024B00070476C4A02EB8001D1F8001C41F4807136
:1024C00048F68F72114048F280021143654B03EBCE
:1024D0008002C2F8001C7047624A02EB8001D1F80A
:1024E000001C41F4807148F68F72114048F280025E
:1024F00011435C4B03EB8002C2F8001C7047594A41
:1025000002EB8001D1F8001C48F68F62114048F2BE
:1025100080021143534B03EB8002C2F8001C70474A
:102520000146504A02EB8100D0F8000C00F0300068
:10253000102801D1012070470020FCE70146494ADC
:1025400002EB8100D0F8000C00F44050B0F5805F41
:1025500001D1012070470020FCE7424A02EB8001D4
:10256000D1F8001CC1F30E0148F68F7211403D4BAB
:1025700003EB8002C2F8001C70473A4A02EB80016C
:10258000D1F8001C48F60F721140364B03EB800265
:10259000C2F8001C7047334A02EB8001D1F8001CDE
:1025A00048F68F7211404CF2800211432D4B03EB21
:1025B0008002C2F8001C70472A4A02EB8001D1F861
:1025C000001C48F68F72114048F2C0021143254B9F
:1025D00003EB8002C2F8001C7047224A02EB800124
:1025E000D1F8001C01F4804171B102EB8001D1F8F7
:1025F000001C48F68F7211404CF280021143194BB7
:1026000003EB8002C2F8001C7047164A02EB8001FF
:10261000D1F8001C01F0400171B102EB8001D1F84A
:10262000001C48F68F72114048F2C00211430D4B56
:1026300003EB8002C2F8001C704710B5094B03EB96
:102640008002D2F8002C48F68F731A4048F28003BB
:102650001A430A43034C04EB8003C3F8002C10BD5B
:10266000405C0040005000400146FC4A02EB810003
:10267000D0F8000C00F00F00704710B54A1052005F
:10268000F74B1B689BB203EBC003F64C44F81320D6
:1026900010BD10B54A105300F14A126892B202EB15
:1026A000C002121DEF4C44F8123010BD0146EC4838
:1026B000006880B200EBC100EA4A32F8100080B234
:1026C00070470146E648006880B200EBC100001D7B
:1026D000E44A32F8100080B27047E14A126892B2C0
:1026E00002EBC002921CDF4B43F812107047024607
:1026F0003E290BDD481101F01F030BB9431E98B2B0
:102700004FF4004343EA8023136007E0481001F0D0
:1027100001030BB1431C98B283021360704710B5DC
:102720000246CF48006880B200EBC200801DCD4C4D
:1027300004EB40033E290BDD481101F01F040CB9E6
:10274000441EA0B24FF4004444EA80241C6007E019
:10275000481001F001040CB1441CA0B284021C60BA
:1027600010BD0146BE48006880B200EBC100801C6D
:10277000BC4A32F81000C0F3090070470146B8485F
:10278000006880B200EBC100801DB64A32F810002C
:10279000C0F30900704730B54B105B00B04C2468A3
:1027A000A4B204EBC004AF4D45F8143053105C00E4
:1027B000AB4B1B689BB203EBC0031B1D45F81340DA
:1027C00030BD10B54A105200A54B1B689BB203EBFD
:1027D000C003A44C44F8132010BD10B54A10530098
:1027E0009F4A126892B202EBC002121D9D4C44F83F
:1027F000123010BD01469A48006880B200EBC1005B
:10280000984A32F8100080B2704701469448006838
:1028100080B200EBC100001D924A32F8100080B275
:10282000704730B50B46012B1FD18D49096889B21D
:1028300001EBC001891C8B4D05EB41043E2A0BDDE9
:10284000511102F01F050DB94D1EA9B24FF40045FC
:1028500045EA8125256007E0511002F001050DB120
:102860004D1CA9B28D0225600AE0022B08D17C49DB
:10287000096889B201EBC001891C7A4C44F8112027
:10288000012B1FD17649096889B201EBC001891D6E
:10289000744D05EB41043E2A0BDD511102F01F057A
:1028A0000DB94D1EA9B24FF4004545EA81252560BA
:1028B00007E0511002F001050DB14D1CA9B28D02C7
:1028C00025600AE0022B08D16549096889B201EB4D
:1028D000C001891D634C44F8112030BD30B503465A
:1028E00001291FD15E48006880B200EBC300801C44
:1028F0005C4D05EB40043E2A0BDD501102F01F0534
:102900000DB9451EA8B24FF4004545EA8025256063
:1029100007E0501002F001050DB1451CA8B2850278
:1029200025600AE0022908D14D48006880B200EB1A
:10293000C300801C4B4C44F8102030BD30B503461A
:1029400001291FD14648006880B200EBC300801DFA
:10295000444D05EB40043E2A0BDD501102F01F05EB
:102960000DB9451EA8B24FF4004545EA8025256003
:1029700007E0501002F001050DB1451CA8B2850218
:1029800025600AE0022908D13548006880B200EBD2
:10299000C300801D334C44F8102030BD0146304840
:1029A000006880B200EBC100801C2E4A32F8100093
:1029B000C0F30900704701462948006880B200EB67
:1029C000C100801D274A32F81000C0F3090070478B
:1029D00001462348006880B200EBC100801D214AF7
:1029E00032F8100000F47C4008B1012070471C4808
:1029F000006880B200EBC100801C1A4A32F8100057
:102A0000C0F3090008B10220F0E70020EEE710B59E
:102A1000012910D1114B03EB8002D2F8002C48F6AB
:102A20008F731A4048F2C0031A430C4C04EB800326
:102A3000C3F8002C11E002290FD1084B03EB8002F0
:102A4000D2F8002C48F68F731A404CF280031A43D8
:102A5000024C04EB8003C3F8002C10BD0050004072
:102A6000505C004000600040024641EA022070478E
:102A70000146CAB20B1243EA0220704700201D49EA
:102A800008604FF43F401C490880084600881949F7
:102A9000091F0860002070472DE9F04104460E46EA
:102AA000154604F07F00FFF701FE0746AAB239463B
:102AB0003046FFF7B1FBA9B204F07F00FFF70DFE2F
:102AC0000020BDE8F0812DE9F04104460E460025C6
:102AD00004F07F00FFF752FE054604F07F00FFF789
:102AE000F0FD07462A4639463046FFF7AFFB284639
:102AF000BDE8F081445C00401E000020484840686A
:102B000020F48000464948600846C06940F400004F
:102B1000C861704703204349086070474248817A82
:102B200019B105213F4A116002E001213D4A1160BF
:102B3000704710B53D48006840F480203B4908606C
:102B40003A480830006840F480203849083108606D
:102B50000223142200210120FDF7B8FE02232A22BD
:102B600000210846FDF7B2FE10BD2DE9FC5F0446CA
:102B70000D4616461F46DDE90EABDDE90C89002047
:102B8000009001908DF800408DF801508DF80260A2
:102B90008DF803708DF804808DF805908DF806A0EF
:102BA0008DF807B0082269468120FFF775FF0120E4
:102BB000FFF71AFCBDE8FC9F30B50B46002100BFB3
:102BC00016E00A24B4EB107F05D9302404EB10740E
:102BD00003F8114005E0412404EB10740A3C03F8AB
:102BE0001140000100254C00641C1D554C1CE1B235
:102BF0009142E6DB30BD70B50D480468001D0568E4
:102C0000001D0668344454B108220A492046FFF7E3
:102C1000D3FF0422074910312846FFF7CDFF70BDCE
:102C20000010024024010020F801002000040140AF
:102C3000E8F7FF1F2B00002010B500F011F810BDC1
:102C40000348006840F48020014908607047000094
:102C50001404014001200149087070472800002039
:102C600010B588B0002468480068684908800846A4
:102C7000008800F4004066490988084008B1FFF761
:102C80002DF96248008800F4806061490988084095
:102C900030B14FF6FF305C4908605E4948688047B4
:102CA0005A48008800F4005059490988084018B172
:102CB0004DF6FF70544908605448008800F4805075
:102CC00053490988084030B14EF6FF704E490860FC
:102CD000002000F0FBF94D48008800F400604C49EA
:102CE0000988084060B14C48007810B100F0CEF976
:102CF00002E0022000F0EAF94FF2FF70424908605A
:102D00004248008800F4007041490988084040B1F9
:102D10004FF6FF503C49086040480078401C3F494E
:102D200008703A48008800F48070394909880840E2
:102D3000002866D04FF6FF6033490860081D006820
:102D400000F40040002856D035480068401C344943
:102D5000086008460068032850D92B48001F006807
:102D600000F00800002849D12748001F006880B201
:102D70002C490860002408E02B4901EB8400D0F8BE
:102D8000000C80B24DF82400641C082CF4D32548B4
:102D9000006840F00100234908600846006880B2DE
:102DA0001949091F08601F48006820F001001D49EB
:102DB00008600846006880B21349091F086000BF18
:102DC0001148006800F480600028F9D04FF6FF3009
:102DD0000D490860002408E05DF8240080B2124A22
:102DE00002EB8401C1F8000C641C082CF4D3002011
:102DF0000B49086002E0002009490860072000F044
:102E000065F908B010BD0000445C0040440000209B
:102E10001E00002090000020280100204600002015
:102E2000480000204C0000200050004010B5FFF783
:102E3000E2FE002079490968887200F005F9FFF781
:102E40001DFE00207649086010BD10B500207349B2
:102E50000968887271490968C8727248C0796F49F7
:102E6000096848720020FFF723FA4FF40071002030
:102E7000FFF738FA10210020FFF74DFA1821002043
:102E8000FFF707FC58210020FFF7F7FB0020FFF7B2
:102E9000FFFA654890F82C100020FFF740FC002056
:102EA000FFF7BAFA4FF4C0610120FFF71BFA4FF4A5
:102EB00080710120FFF7E1FB08210120FFF70DFCE5
:102EC00000210120FFF745FA20210120FFF723FA16
:102ED0000020FEF756FF01205149086010BD5348FD
:102EE000817A11B105214E4A1160704704204C4986
:102EF0000860704770477047014629B90120474A6A
:102F000012681082002070474948FCE710B504465B
:102F100048492046FEF72BFC10BD10B50446464933
:102F20002046FEF724FC10BD70B504460025062C93
:102F30001AD13A480068007800F07F00012813D1C8
:102F400036480068407978B934480068807822288B
:102F500002D1AFF2390512E03048006880782128AC
:102F60000DD1AFF257050AE02C480068007800F058
:102F70007F00212803D1032C01D1AFF283050DB9C5
:102F8000022070BD25480068856100212348006843
:102F900041820020A8470020F3E720480068C1785C
:102FA000234801600020704700B502461B480068B6
:102FB000007800F07F00212804D10B2A02D1FFF70E
:102FC000ECFF00BD0220FCE710B504461B4920467B
:102FD000FEF7CDFB10BD10B5044619492046FEF79B
:102FE000C6FB10BD70B505460C480068C478042CBB
:102FF00001DD002070BD134800EBC4012846FEF738
:10300000B6FBF7E70246002901DD02207047002ADF
:1030100001DD0220FAE70020F8E70000140000209C
:10302000240100206837000890000020F8010020EB
:1030300088000020FC000020F4000020E4000020B4
:10304000EC00002004010020012151480160002013
:10305000504A1080104600884D4A10600020121D12
:1030600010604FF4E0504B4A108010460088484AE8
:103070001060002070470120454908600020091DAC
:1030800008600320091F08600020704710B5404801
:10309000006884B244F008043D480460006884B2CB
:1030A00044F004043A480460FFF734FD10BD10B545
:1030B0003748006884B224F0040435480460FFF700
:1030C0002DFD4FF43F403249086010BD70B50546F4
:1030D000072D01D0304805702F48007808284ED2BF
:1030E000DFE800F004111A202B384E4F2B480068FF
:1030F00028B9FFF7DCFF06202749087002E0052009
:103100002549087041E0FFF7D2FF042022490870EA
:1031100001202249086038E002201F49487003203E
:10312000087032E01C484078401E1B494870084631
:10313000407808B90420087027E01548006884B278
:1031400044F01004124804600520134908700A2056
:1031500048701AE010484078401E0F4948700846F1
:10316000407858B90A48006884B224F0100408482E
:1031700004600620087000200849086005E000BFD0
:1031800000BF06200449087000BF00BF70BD0000EA
:10319000405C00401E000020290100202C0100207E
:1031A00070477047704770477047754600F02CF8BD
:1031B000AE4605006946534620F00700854618B024
:1031C00020B5FDF713F8BDE820404FF000064FF0A2
:1031D00000074FF000084FF0000B21F00701AC464C
:1031E000ACE8C009ACE8C009ACE8C009ACE8C0096B
:1031F0008D46704710B50446AFF300802046BDE809
:103200001040FCF7DABF00000048704714020020AD
:1032100090EA010F48BF81F0004100F12E82421A6E
:103220003CBF801A89184FEAD0524FF07F4C1CEAFD
:10323000410FA2EBD15318BF9CEA026F00F03B8014
:103240004FF0004C4CEA00204CEA012121FA03FC2B
:1032500010EB0C0C1ED202F1FF325FEA1C2040EB97
:10326000C25038BF70471CF07F0F4FEA400C18BFA8
:10327000BCF17F4F38BF7047C3F12003994008BFAE
:1032800020F00100BCF17F4F38BF7047A0F1C04073
:1032900000F0DDB94FEA3C00000A40EBC25028BF05
:1032A0001CF0FF0F4FEA400CE6D018BFBCF17F4F77
:1032B00038BF7047EAE79CEA026F05D010EA5C0F5E
:1032C00008BF00F00040704710B500F07AF900BF69
:1032D00064FBBE3E4FF47F0C1CEAD0121EBF1CEAFA
:1032E000D11392EA0C0F93EA0C0F00F0858090EA5C
:1032F000010F48BF42F4807240F4000C41F400001A
:103300002CF07F4120F07F4000B58142A2EB030208
:103310000FF2081CACEB504EC0F100009EF800E02C
:103320004FEA4E0E00FB0EFC38BF49004FEA2C1C42
:1033300002F5FA020CFB0EF34FEACE1E4FEA112CF7
:103340004FEAC1210EEB635E42EB22420EFB0CFC06
:103350004FEA1C5300FB03114FEA112C4FEA0131D5
:103360000EFB0CFC4FEADC4C00FB0C11C14228BFE9
:1033700009184CEB03335DF804EB10EB410143EB10
:10338000C250B2F57C0F38BF704729D512F0F00F4C
:103390001CBF00F1C04000F00040704700818283F4
:1033A0008485868788898B8C8D8E8F919293959654
:1033B00097999A9C9D9FA0A2A3A5A7A8AAACAEB0DE
:1033C000B2B3B5B7B9BCBEC0C2C5C7C9CCCED1D4E3
:1033D000D7D9DCDFE2E6E9ECF0F3F7FAFE00000013
:1033E0004FEA400C0CF1807CBCF17E4F28BF704747
:1033F000B0F1C04000F02BB990EA010F0CEAD113F4
:1034000048BF42F48072624538BF634507D213F467
:103410007F0F16D080EA010000F00040704710B521
:1034200000F0CFF8097EFC3E00F005B880EA01000C
:1034300000F00040704780EA010000F0004000F01A
:1034400006B912F47F0F04BF0248704780EA0100FA
:1034500000F0FDB80000C07FC10DD1F19E0206DB77
:103460004FEA002343F0004323FA02F07047004282
:1034700007D54FEA4001B1F1FE4F02D24FF00000F4
:10348000704710B500F09DF84992248000207047E5
:103490006FEA200070470000B0FA80F310FA03F2E0
:1034A000C3F19D030AD0D90501EB1220530638BFA2
:1034B000704700F1010008BF20F0010070470000D4
:1034C0004FF47F0C1CEAD0121EBF1CEAD11392EA03
:1034D0000C0F93EA0C0F00F0478090EA010F48BFF1
:1034E00042F480724FF0004C4CEA00204CEA01217B
:1034F00002EB0302A0FB0113A2F50002002918BF92
:1035000043F001035B0028BF4FEA330342EB224242
:103510005FEA132C4CEBC2502EBFBCEB436FB2F5ED
:103520007C0F70474FEA036CBCF1004F08BF20F0DE
:103530000100B2F57C0F38BF70470BD582F0FF0257
:1035400012F5803FC8BF704700F1C040D8BF00F0FF
:103550000040704700F5000C5FEA4C0C48BF704714
:10356000B0F1C04000F073B890EA010F0CEAD1133B
:1035700048BF42F48072624538BF634504D280EA96
:10358000010000F00040704710B500F01AF800BFCD
:103590008900013E00F007B800F009B85FEA410C6D
:1035A0005FEA1C6C08D080EA010000F050B85FEAC6
:1035B000400C5FEA1C6CF6D14FF00040A0F5800093
:1035C00070470EF1020E2EF0030E5EF8044B2442FB
:1035D00004D44FEA4102B2F17F4F11D84FEA4003C1
:1035E000B3F17F4F0CD80ED14FEAD07CB2F17F4FB0
:1035F0000CEB4C0C0CF1020C08BF4CEBD17C04E042
:103600004FF0080C01E04FEAD17C0CEB4C0324FA9C
:1036100003F404F00704B4F1040C06D20EEB840C9E
:10362000BDE810404CF0010C6047DFE80CF00708E3
:1036300002024FF00040A0F5800010BD0846420095
:1036400018BFD2F1807288BF00F0004010BDFF218A
:1036500041EAD050C005704780F0004090EA010F69
:103660007FF5DDAD81F0004100F007B890EA010F71
:1036700048BF81F000413FF5D2AD421A04D882F034
:103680000042A0EB020011444FEAD0524FF07F4CB1
:103690001CEA410FA2EBD15318BF9CEA026F4AD03B
:1036A0004FF0004C4CEA00204CEA012121FA03FCC7
:1036B000B0EB0C0C0FD412F0FE0F36D05FEA4C00CA
:1036C0001DD5001240EBC25038BF70471CF03F0FB1
:1036D00018BF70470BE0A2F101025FEA1C2040EB2B
:1036E000C25038BF70471CF07F0F18BF7047C3F13E
:1036F0002003994014BF401E20F00100704780084D
:103700004FEA122308BF7047B0FA80FCA2EB0C020C
:10371000CCF1280C60FA0CF093EA122F04BF00EBF6
:10372000C25070474FEAC3707047130A5FEADC105B
:1037300008BF7047F6E79CEA026F04D010EA5C0FFE
:1037400008BF0020704710B5FFF73BFF40DFF63E93
:1037500081F0004070471201000200000040931900
:10376000031100020102030109022200010100C04D
:1037700032090400000103010100092100010001D8
:10378000222B000705810308002005010906A1017D
:10379000050719E029E71500250195087501810243
:1037A00095017508810395067508150025FF190018
:1037B00029658100C00403090412032867378C843B
:1037C00076DB56216B4351E3538B88180347004B3C
:1037D00000310036002000386E0F623A67B0682E64
:1037E00095D8760004380008000000203001000061
:1037F000280100087C38000830010020480700003C
:1038000084010008012815011A0347124B123112D6
:1038100036021C2013552C0C3008711E0441230263
:1038200001132D2E1B084B041AF5041AF704132953
:103830002F1B08A9041305301B08C9081AD7041A3E
:10384000E504413240293C1ADF280916581AED1CBC
:103850001356373308121A680832221A8A08322B94
:103860001A7A0832091AB50832045AB9281ACB084C
:0C3870003218222973201A199B51000005
:04000005080000ED02
:00000001FF
